{
  "contractName": "DStorage",
  "abi": [
    {
      "inputs": [
        {
          "internalType": "address",
          "name": "",
          "type": "address"
        },
        {
          "internalType": "uint256",
          "name": "",
          "type": "uint256"
        }
      ],
      "name": "hasSharedImages",
      "outputs": [
        {
          "internalType": "address",
          "name": "",
          "type": "address"
        }
      ],
      "stateMutability": "view",
      "type": "function",
      "constant": true
    },
    {
      "inputs": [
        {
          "internalType": "address",
          "name": "",
          "type": "address"
        },
        {
          "internalType": "uint256",
          "name": "",
          "type": "uint256"
        }
      ],
      "name": "uploadedData",
      "outputs": [
        {
          "internalType": "string",
          "name": "",
          "type": "string"
        }
      ],
      "stateMutability": "view",
      "type": "function",
      "constant": true
    },
    {
      "inputs": [
        {
          "internalType": "address",
          "name": "_from",
          "type": "address"
        },
        {
          "internalType": "address",
          "name": "_to",
          "type": "address"
        },
        {
          "internalType": "string",
          "name": "_url",
          "type": "string"
        }
      ],
      "name": "shareImage",
      "outputs": [],
      "stateMutability": "nonpayable",
      "type": "function"
    },
    {
      "inputs": [
        {
          "internalType": "address",
          "name": "_user",
          "type": "address"
        },
        {
          "internalType": "address",
          "name": "_from",
          "type": "address"
        },
        {
          "internalType": "uint256",
          "name": "index",
          "type": "uint256"
        }
      ],
      "name": "getSharedImages",
      "outputs": [
        {
          "internalType": "string",
          "name": "",
          "type": "string"
        }
      ],
      "stateMutability": "view",
      "type": "function",
      "constant": true
    },
    {
      "inputs": [
        {
          "internalType": "address",
          "name": "_user",
          "type": "address"
        },
        {
          "internalType": "address",
          "name": "_from",
          "type": "address"
        }
      ],
      "name": "removeAccess",
      "outputs": [],
      "stateMutability": "nonpayable",
      "type": "function"
    },
    {
      "inputs": [
        {
          "internalType": "address",
          "name": "_address",
          "type": "address"
        },
        {
          "internalType": "string",
          "name": "_url",
          "type": "string"
        }
      ],
      "name": "uploadData",
      "outputs": [],
      "stateMutability": "nonpayable",
      "type": "function"
    },
    {
      "inputs": [
        {
          "internalType": "address",
          "name": "_account",
          "type": "address"
        }
      ],
      "name": "getSharedAccountsLength",
      "outputs": [
        {
          "internalType": "uint256",
          "name": "",
          "type": "uint256"
        }
      ],
      "stateMutability": "view",
      "type": "function",
      "constant": true
    },
    {
      "inputs": [
        {
          "internalType": "address",
          "name": "_account",
          "type": "address"
        }
      ],
      "name": "getDataLength",
      "outputs": [
        {
          "internalType": "uint256",
          "name": "",
          "type": "uint256"
        }
      ],
      "stateMutability": "view",
      "type": "function",
      "constant": true
    },
    {
      "inputs": [
        {
          "internalType": "address",
          "name": "_to",
          "type": "address"
        },
        {
          "internalType": "address",
          "name": "_from",
          "type": "address"
        }
      ],
      "name": "getSharedDataLength",
      "outputs": [
        {
          "internalType": "uint256",
          "name": "",
          "type": "uint256"
        }
      ],
      "stateMutability": "view",
      "type": "function",
      "constant": true
    }
  ],
  "bytecode": "0x608060405234801561001057600080fd5b506111b3806100206000396000f3fe608060405234801561001057600080fd5b50600436106100935760003560e01c806377b0bc131161006657806377b0bc13146101445780639349244b14610174578063b62d2919146101a4578063c0f4da0a146101d4578063cffea59d146101f057610093565b8063081126e414610098578063105f641e146100b45780631395e428146100e45780636b1c376f14610114575b600080fd5b6100b260048036038101906100ad9190610a31565b61020c565b005b6100ce60048036038101906100c99190610a71565b6102a5565b6040516100db9190610ab7565b60405180910390f35b6100fe60048036038101906100f99190610afe565b6102f1565b60405161010b9190610b4d565b60405180910390f35b61012e60048036038101906101299190610afe565b61033f565b60405161013b9190610bf8565b60405180910390f35b61015e60048036038101906101599190610a71565b6103f8565b60405161016b9190610ab7565b60405180910390f35b61018e60048036038101906101899190610c1a565b610443565b60405161019b9190610bf8565b60405180910390f35b6101be60048036038101906101b99190610a31565b610638565b6040516101cb9190610ab7565b60405180910390f35b6101ee60048036038101906101e99190610cd2565b6106c2565b005b61020a60048036038101906102059190610d32565b610741565b005b6000600160008473ffffffffffffffffffffffffffffffffffffffff1673ffffffffffffffffffffffffffffffffffffffff16815260200190815260200160002060008373ffffffffffffffffffffffffffffffffffffffff1673ffffffffffffffffffffffffffffffffffffffff16815260200190815260200160002060006101000a81548160ff0219169083151502179055505050565b6000600360008373ffffffffffffffffffffffffffffffffffffffff1673ffffffffffffffffffffffffffffffffffffffff168152602001908152602001600020805490509050919050565b6003602052816000526040600020818154811061030d57600080fd5b906000526020600020016000915091509054906101000a900473ffffffffffffffffffffffffffffffffffffffff1681565b6000602052816000526040600020818154811061035b57600080fd5b9060005260206000200160009150915050805461037790610dd5565b80601f01602080910402602001604051908101604052809291908181526020018280546103a390610dd5565b80156103f05780601f106103c5576101008083540402835291602001916103f0565b820191906000526020600020905b8154815290600101906020018083116103d357829003601f168201915b505050505081565b60008060008373ffffffffffffffffffffffffffffffffffffffff1673ffffffffffffffffffffffffffffffffffffffff168152602001908152602001600020805490509050919050565b6060600160008573ffffffffffffffffffffffffffffffffffffffff1673ffffffffffffffffffffffffffffffffffffffff16815260200190815260200160002060008473ffffffffffffffffffffffffffffffffffffffff1673ffffffffffffffffffffffffffffffffffffffff16815260200190815260200160002060009054906101000a900460ff1661050e576040517f08c379a000000000000000000000000000000000000000000000000000000000815260040161050590610e78565b60405180910390fd5b600260008573ffffffffffffffffffffffffffffffffffffffff1673ffffffffffffffffffffffffffffffffffffffff16815260200190815260200160002060008473ffffffffffffffffffffffffffffffffffffffff1673ffffffffffffffffffffffffffffffffffffffff168152602001908152602001600020828154811061059c5761059b610e98565b5b9060005260206000200180546105b190610dd5565b80601f01602080910402602001604051908101604052809291908181526020018280546105dd90610dd5565b801561062a5780601f106105ff5761010080835404028352916020019161062a565b820191906000526020600020905b81548152906001019060200180831161060d57829003601f168201915b505050505090509392505050565b6000600260008473ffffffffffffffffffffffffffffffffffffffff1673ffffffffffffffffffffffffffffffffffffffff16815260200190815260200160002060008373ffffffffffffffffffffffffffffffffffffffff1673ffffffffffffffffffffffffffffffffffffffff16815260200190815260200160002080549050905092915050565b6000808473ffffffffffffffffffffffffffffffffffffffff1673ffffffffffffffffffffffffffffffffffffffff16815260200190815260200160002082829091806001815401808255809150506001900390600052602060002001600090919290919290919290919250918261073b9291906110ad565b50505050565b60001515600160008673ffffffffffffffffffffffffffffffffffffffff1673ffffffffffffffffffffffffffffffffffffffff16815260200190815260200160002060008573ffffffffffffffffffffffffffffffffffffffff1673ffffffffffffffffffffffffffffffffffffffff16815260200190815260200160002060009054906101000a900460ff1615150361090b5760018060008673ffffffffffffffffffffffffffffffffffffffff1673ffffffffffffffffffffffffffffffffffffffff16815260200190815260200160002060008573ffffffffffffffffffffffffffffffffffffffff1673ffffffffffffffffffffffffffffffffffffffff16815260200190815260200160002060006101000a81548160ff021916908315150217905550600360008473ffffffffffffffffffffffffffffffffffffffff1673ffffffffffffffffffffffffffffffffffffffff168152602001908152602001600020849080600181540180825580915050600190039060005260206000200160009091909190916101000a81548173ffffffffffffffffffffffffffffffffffffffff021916908373ffffffffffffffffffffffffffffffffffffffff1602179055505b600260008573ffffffffffffffffffffffffffffffffffffffff1673ffffffffffffffffffffffffffffffffffffffff16815260200190815260200160002060008473ffffffffffffffffffffffffffffffffffffffff1673ffffffffffffffffffffffffffffffffffffffff1681526020019081526020016000208282909180600181540180825580915050600190039060005260206000200160009091929091929091929091925091826109c29291906110ad565b5050505050565b600080fd5b600080fd5b600073ffffffffffffffffffffffffffffffffffffffff82169050919050565b60006109fe826109d3565b9050919050565b610a0e816109f3565b8114610a1957600080fd5b50565b600081359050610a2b81610a05565b92915050565b60008060408385031215610a4857610a476109c9565b5b6000610a5685828601610a1c565b9250506020610a6785828601610a1c565b9150509250929050565b600060208284031215610a8757610a866109c9565b5b6000610a9584828501610a1c565b91505092915050565b6000819050919050565b610ab181610a9e565b82525050565b6000602082019050610acc6000830184610aa8565b92915050565b610adb81610a9e565b8114610ae657600080fd5b50565b600081359050610af881610ad2565b92915050565b60008060408385031215610b1557610b146109c9565b5b6000610b2385828601610a1c565b9250506020610b3485828601610ae9565b9150509250929050565b610b47816109f3565b82525050565b6000602082019050610b626000830184610b3e565b92915050565b600081519050919050565b600082825260208201905092915050565b60005b83811015610ba2578082015181840152602081019050610b87565b60008484015250505050565b6000601f19601f8301169050919050565b6000610bca82610b68565b610bd48185610b73565b9350610be4818560208601610b84565b610bed81610bae565b840191505092915050565b60006020820190508181036000830152610c128184610bbf565b905092915050565b600080600060608486031215610c3357610c326109c9565b5b6000610c4186828701610a1c565b9350506020610c5286828701610a1c565b9250506040610c6386828701610ae9565b9150509250925092565b600080fd5b600080fd5b600080fd5b60008083601f840112610c9257610c91610c6d565b5b8235905067ffffffffffffffff811115610caf57610cae610c72565b5b602083019150836001820283011115610ccb57610cca610c77565b5b9250929050565b600080600060408486031215610ceb57610cea6109c9565b5b6000610cf986828701610a1c565b935050602084013567ffffffffffffffff811115610d1a57610d196109ce565b5b610d2686828701610c7c565b92509250509250925092565b60008060008060608587031215610d4c57610d4b6109c9565b5b6000610d5a87828801610a1c565b9450506020610d6b87828801610a1c565b935050604085013567ffffffffffffffff811115610d8c57610d8b6109ce565b5b610d9887828801610c7c565b925092505092959194509250565b7f4e487b7100000000000000000000000000000000000000000000000000000000600052602260045260246000fd5b60006002820490506001821680610ded57607f821691505b602082108103610e0057610dff610da6565b5b50919050565b7f596f75206e6f206d6f726520686176652061636365737320746f20746869732060008201527f6163636f756e7400000000000000000000000000000000000000000000000000602082015250565b6000610e62602783610b73565b9150610e6d82610e06565b604082019050919050565b60006020820190508181036000830152610e9181610e55565b9050919050565b7f4e487b7100000000000000000000000000000000000000000000000000000000600052603260045260246000fd5b600082905092915050565b7f4e487b7100000000000000000000000000000000000000000000000000000000600052604160045260246000fd5b60008190508160005260206000209050919050565b60006020601f8301049050919050565b600082821b905092915050565b600060088302610f637fffffffffffffffffffffffffffffffffffffffffffffffffffffffffffffffff82610f26565b610f6d8683610f26565b95508019841693508086168417925050509392505050565b6000819050919050565b6000610faa610fa5610fa084610a9e565b610f85565b610a9e565b9050919050565b6000819050919050565b610fc483610f8f565b610fd8610fd082610fb1565b848454610f33565b825550505050565b600090565b610fed610fe0565b610ff8818484610fbb565b505050565b5b8181101561101c57611011600082610fe5565b600181019050610ffe565b5050565b601f8211156110615761103281610f01565b61103b84610f16565b8101602085101561104a578190505b61105e61105685610f16565b830182610ffd565b50505b505050565b600082821c905092915050565b600061108460001984600802611066565b1980831691505092915050565b600061109d8383611073565b9150826002028217905092915050565b6110b78383610ec7565b67ffffffffffffffff8111156110d0576110cf610ed2565b5b6110da8254610dd5565b6110e5828285611020565b6000601f8311600181146111145760008415611102578287013590505b61110c8582611091565b865550611174565b601f19841661112286610f01565b60005b8281101561114a57848901358255600182019150602085019450602081019050611125565b868310156111675784890135611163601f891682611073565b8355505b6001600288020188555050505b5050505050505056fea2646970667358221220bc9a4269b5ba919685bdd8e53c1d7345770ce087555911f833b9611553acccce64736f6c63430008130033",
  "immutableReferences": {},
  "source": "// SPDX-License-Identifier: MIT\r\n\r\npragma solidity ^0.8.0;\r\n\r\ncontract DStorage{\r\n  \r\n    mapping(address => string[]) public uploadedData;\r\n    mapping(address=>mapping(address=>bool)) access;\r\n    mapping(address => mapping(address=>string[])) shared;\r\n    mapping(address=>address[]) public hasSharedImages;\r\n\r\n    \r\n    function shareImage(address _from,address _to,string calldata _url) external {\r\n        if(access[_from][_to] == false){\r\n            access[_from][_to] = true;\r\n            hasSharedImages[_to].push(_from);\r\n        }\r\n            shared[_from][_to].push(_url);\r\n    }\r\n\r\n    function getSharedImages(address _user,address _from, uint index) external view returns(string memory){\r\n        require(access[_user][_from],\"You no more have access to this account\");\r\n        return  shared[_user][_from][index];\r\n    }\r\n\r\n    function removeAccess(address _user, address _from) external{\r\n        access[_user][_from] = false;\r\n    }\r\n    \r\n    function uploadData(address _address, string calldata _url) external{\r\n       uploadedData[_address].push(_url);\r\n    }\r\n\r\n    function getSharedAccountsLength(address _account) public view returns (uint) {\r\n        return hasSharedImages[_account].length;\r\n    }\r\n\r\n    function getDataLength(address _account) public view returns (uint) {\r\n        return uploadedData[_account].length;\r\n    }\r\n\r\n    function getSharedDataLength(address _to, address _from) public view returns (uint) {\r\n        return shared[_to][_from].length;\r\n    }\r\n\r\n}",
  "sourcePath": "C:\\Users\\laksh\\Desktop\\D-Drive\\contracts\\DStorage.sol",
  "compiler": {
    "name": "solc",
    "version": "0.8.19+commit.7dd6d404.Emscripten.clang"
  },
  "schemaVersion": "3.4.13",
  "updatedAt": "2023-04-20T07:46:41.608Z",
  "networkType": "ethereum",
  "devdoc": {
    "kind": "dev",
    "methods": {},
    "version": 1
  },
  "userdoc": {
    "kind": "user",
    "methods": {},
    "version": 1
  }
}